:020000040800F2
:1000000000200020551D00089D0900089F090008D8
:1000100000000000000000000000000000000000E0
:10002000000000000000000000000000A10900081E
:100030000000000000000000A3090008A509000856
:10004000A51D0008A51D0008A51D0008A51D000888
:10005000A51D000845060008A51D0008A51D0008EF
:10006000A51D0008A51D0008A51D0008A51D000868
:10007000F9060008A51D0008A51D0008A51D00081B
:10008000A51D0008A51D000800000000A51D000812
:10009000A51D0008A51D0008A51D0008A51D000838
:1000A000A51D0008A51D0008A51D0008A51D000828
:1000B000A51D000800000000A51D000800000000AC
:1000C00010B5064C2378002B07D1054B002B02D02E
:1000D000044800E000BF0123237010BD6000002031
:1000E0000000000030270008044B10B5002B03D09F
:1000F0000349044800E000BF10BDC04600000000F6
:10010000640000203027000803B47146490840000D
:100110004900095E49008E4403BC70470022430831
:100120008B4274D303098B425FD3030A8B4244D3BF
:10013000030B8B4228D3030C8B420DD3FF22090201
:1001400012BA030C8B4202D31212090265D0030BC0
:100150008B4219D300E0090AC30B8B4201D3CB03B6
:10016000C01A5241830B8B4201D38B03C01A5241F8
:10017000430B8B4201D34B03C01A5241030B8B42FA
:1001800001D30B03C01A5241C30A8B4201D3CB02E5
:10019000C01A5241830A8B4201D38B02C01A5241CA
:1001A000430A8B4201D34B02C01A5241030A8B42CD
:1001B00001D30B02C01A5241CDD2C3098B4201D3E5
:1001C000CB01C01A524183098B4201D38B01C01A63
:1001D000524143098B4201D34B01C01A52410309DA
:1001E0008B4201D30B01C01A5241C3088B4201D389
:1001F000CB00C01A524183088B4201D38B00C01A36
:10020000524143088B4201D34B00C01A5241411A5C
:1002100000D20146524110467047FFE701B5002069
:1002200000F006F802BDC0460029F7D076E7704717
:100230007047C046F0B5C64600B58CB00AAD08227E
:100240000021280001F0E4FD1822002104A801F09B
:10025000DFFD274B5A698021C9030A435A615A6955
:100260000A400392039A5A69802189020A435A611B
:100270005A690A400292029A5A698021C9020A43C5
:100280005A615B690B400193019B1A4F802398468A
:10029000BB62194A93680F218B4393609022D20569
:1002A000D3680C398B4301242343D36013688B43F9
:1002B00013600A942C7100266E71AC71280000F056
:1002C00019FC43460493059406960796089604A9DC
:1002D000380000F06CFB00220021052000F0C4FF74
:1002E000052000F0F1FF0CB080BCB846F0BDC04660
:1002F00000100240000400480000014082B00300EA
:100300004000C0180023019304E0C046C046019B92
:1003100001330193019B8342F7D302B07047000081
:1003200070B51420FFF7EAFF0A4CA36980252D025F
:100330002B43A3611420FFF7E1FFA26980231B0672
:100340001343A3611420FFF7D9FFA3691D43A561DF
:1003500070BDC0460008004810B50400454A9169C8
:100360008023DB010B43936143B2002B46DB9022D9
:10037000D205916980231B060B439361630645D523
:100380009022D205916980235B010B439361A30600
:1003900044D5394A916980239B000B439361E3065E
:1003A00043D5354A916980235B000B439361FFF786
:1003B000B7FF230740D59022D205916980231B0205
:1003C0000B43936163073FD59022D2059169802347
:1003D0005B010B439361A3073ED5274A91698023B4
:1003E0009B000B439361E4073DD5234A9169802329
:1003F0005B000B439361FFF793FF10BD9022D20582
:10040000916980231B020B439361B7E79022D205C9
:10041000916980235B050B439361B8E7164A9169A4
:1004200080239B040B439361B9E7134A91698023AE
:100430005B040B439361BAE79022D2059169802354
:100440001B060B439361BDE79022D205916980237F
:100450005B050B439361BEE7074A916980239B04C8
:100460000B439361BFE7044A916980235B040B430C
:100470009361C0E7000800480004004870B505001B
:10048000002403E0FFF768FF0134E4B2285D002890
:10049000F8D170BD10B50400474A91698023DB058F
:1004A0000B43936143B2002B49DB9022D205916943
:1004B00080231B060B439361630648D59022D20527
:1004C000916980235B010B439361A30647D53B4AA7
:1004D000916980239B000B439361E30646D5374A1D
:1004E000916980235B000B439361FFF719FF23079A
:1004F00043D59022D205916980231B020B4393615F
:10050000630742D59022D205916980235B010B439A
:100510009361A30741D5294A916980239B000B432E
:100520009361E40740D5254A916980235B000B4322
:100530009361FFF7F5FE2248FFF7E0FE10BD902221
:10054000D205916980231B020B439361B4E790228B
:10055000D205916980235B050B439361B5E7174A88
:10056000916980239B040B439361B6E7134A916919
:1005700080235B040B439361B7E79022D205916916
:1005800080231B060B439361BAE79022D205916941
:1005900080235B050B439361BBE7084A9169802385
:1005A0009B040B439361BCE7044A916980235B047D
:1005B0000B439361BDE7C0460008004800040048B3
:1005C000B80B000010B51B4B5969802292020A43F8
:1005D0005A6159698022D2020A435A6159698022BC
:1005E00012030A435A619022D20511688223DB0567
:1005F0000B431360104A1168A023DB020B43136006
:100600000E4A1168A023DB050B4313600C48FFF76B
:1006100075FE3320FFF73EFF3220FFF73BFF0C2033
:10062000FFF738FF2820FFF735FF0120FFF732FFE3
:1006300010BDC046001002400004004800080048F9
:100640003075000010B590200121C00500F02AFF90
:10065000012805D001280ED0012000F033FF10BD85
:100660000A4B1A68FA239B009A42F3D1074BFA22ED
:1006700052001A60F0E7054B1A68FA235B009A42B1
:10068000EAD1024BFA2292001A60E5E7000000204E
:1006900010B504000448FFF731FE0120FFF7FAFE11
:1006A0002000FFF7EBFE10BDB80B000010B50B4C9F
:1006B000200000F00FFC01214942200000F05CFC0A
:1006C000002805D00024054800F034FC200010BDAF
:1006D000024800F0B5FC84B2F5E7C0468400002073
:1006E00010B5034B58430349FFF718FD10BDC04632
:1006F0007FBB0000FF0F000010B5054C200000F08C
:100700009FFC044B1860200000F0A0FC10BDC04608
:10071000840000207C00002072B6FEE700B585B0A2
:100720000C22002101A801F073FB2148214B03603A
:10073000002343608360C3600122026104214161A0
:10074000037643768376C376C221FF31C1610362AB
:100750009E39FF394354826200F0FAFA002822D110
:100760000623019380235B01029380235B0503939F
:100770000F4801A900F0D2FC002816D10D4A91685B
:1007800080231B060B4393600A4B9B68002BFBDB0B
:10079000084A936801210B439360064B1B68DB07F3
:1007A000FBD505B000BDFFF7B7FFFFF7B5FFC046AB
:1007B000840000200024014000B58FB010220021E9
:1007C0000AA801F025FB0822002108A801F020FB5F
:1007D0001C22002101A801F01BFB2048204B0360D4
:1007E0000023436083601F4AC2600361836100F09D
:1007F000BFFF002828D180235B010A9317480AA96C
:1008000001F0D6F8002821D1144800F0DDFF0028BF
:100810001ED1002308930993104808A901F0D8F9C4
:10082000002817D1602301930023029303930593BB
:100830000A48082201A901F037F800280CD107481E
:1008400001F05AFA0FB000BDFFF766FFFFF764FF33
:10085000FFF762FFFFF760FFFFF75EFFC4000020B5
:10086000000400407FBB000010B5244A136801213A
:100870008B431360214B1B68DB07FBD4204A1368B2
:1008800001210B4313601E4B1B689B07FBD51C4AC1
:100890001368F8218B4378390B431360536B7F390E
:1008A0000B435363164B5B6B9B07FBD5144B5A6B87
:1008B000F8218A4378390A435A635A6870318A4367
:1008C0005A605A680F490A405A605A6803218A439D
:1008D0005A600B4B5B680C221A42FAD10A4801F0AD
:1008E00033FA032000F0BCF8002805D1044A536B0A
:1008F00004218B43536310BDFFF70EFF002002401D
:1009000000100240FFF8FFFF00127A0010B584B01B
:1009100000F0CEF8FFF7A8FFFFF78CFCFFF7FEFE14
:10092000FFF74AFFFFF74EFE1548082101F0D2F805
:100930001AE08021134800F0BCFD134B134A1268E3
:100940001A60FFF7B3FE0300114C2060114A0C211E
:1009500001A801F029FA01A8FFF79AFE2068FFF725
:10096000BFFE074B1B68D86300F0BEF8074B18604A
:10097000054B1B68C01A084B1B689842D9D2E0E7A8
:10098000C4000020000400480C010020800000206A
:100990007C0000204827000800000020FEE7FEE75A
:1009A0007047704710B500F093F810BD7047F0B570
:1009B000002216E0C6682B006B435F00FF18FC4363
:1009C000A446BE430F695F433E43C6604C68022C99
:1009D00027D0046865462C404D686B432343036071
:1009E00001320C682300D34037D001239340250007
:1009F0001D401C42F4D04B68013B012BDAD88368C0
:100A00002C006C4366003619B3438E68744323434D
:100A100083600C684368A343CE68744323434360F8
:100A2000C8E7FF2D0BD8066A1C006C4365432C01F8
:100A3000641BA6434C69654335430562C9E7466AB2
:100A40002D0A2C006C436C4365432C01641BA643A8
:100A50004C69654335434562BBE70020F0BD0000AB
:100A600010B504000F4B1978FA208000FFF756FBF1
:100A700001000D4B1868FFF751FB00F031FC002816
:100A80000DD1032C01D901200AE001300022210000
:100A9000404200F0E9FB054B1C60002000E0012013
:100AA00010BDC04608000020040000200C000020FB
:100AB00010B5064A136810210B4313600320FFF79B
:100AC000CFFF01F0BBF8002010BDC046002002405F
:100AD000034A1168034B1B785B1813607047C046CC
:100AE0001001002008000020014B18687047C04624
:100AF0001001002010B503000079002850D01A68BA
:100B0000002A57D05879012818D0022820D0002870
:100B10000BD001209A79002A4BD0022A2CD0032A2C
:100B200034D0012A1ED0012043E023494C6894436D
:100B30004C600A681C6822430A60EBE71E4908689B
:100B4000904308604A68186802434A600020E1E761
:100B50001949086802430A604A68186802434A60F3
:100B60000020D7E7144AD1681C68A143D1601B68F4
:100B700091680B4393601CE00F4A91681C68A14385
:100B800091601B68D1680B43D36012E00A4A9168F8
:100B90001C68214391601B68D1680B43D36008E057
:100BA000054A11681C68A1431160196853688B439A
:100BB000536010BD0020FCE70004014070B5040044
:100BC00003689A68520725D59A68520706D59A682D
:100BD000920703D49A6810210A439A60FFF784FFB2
:100BE000050023689B685B0712D5FFF77DFF401B5C
:100BF0000228F6D923689B685B07F2D5A36B102205
:100C00001343A363E36B0F3A1343E363012002E052
:100C1000002000E0002070BD70B5040002689168FB
:100C200003230B40012B01D0002070BD1368DB07AC
:100C300002D4D3681B0431D5916805230B40012BE6
:100C400009D0A36B10221343A363E36B0F3A134342
:100C5000E3630120E9E7936802210B439360236873
:100C600003221A60FFF740FF050023689B68DB073B
:100C700012D5FFF739FF401B0228F6D923689B687D
:100C8000DB07F2D5A36B10221343A363E36B0F3A88
:100C90001343E3630120C8E70020C6E70020C4E750
:100CA00030B583B0040000230193036899680322E0
:100CB0000A40012A14D09968224A114218D19A6830
:100CC00001210A439A60204B18682049FFF726FA51
:100CD0000190019B002B15D0019B013B0193F8E78C
:100CE0001A68D2072BD4DA681204E4D5002024E075
:100CF000A36B10221343A363E36B0F3A1343E36325
:100D000001201AE0FFF7F0FE050023681B68DB07EF
:100D100012D4FFF7E9FE401B0228F6D923681B68AE
:100D2000DB07F2D4A36B10221343A363E36B0F3AE8
:100D30001343E363012000E0002003B030BD002036
:100D4000FBE7C046170000800400002040420F006F
:100D500070B5041E00D1B4E0836B002B00D180E09D
:100D6000A36BDB0600D5A6E022689168042005008D
:100D70000D40084200D09EE0A16B534B1940063352
:100D8000FF331943A163916801330B40012B6ED0EF
:100D9000D36818218B43A1680B43D3602268136981
:100DA0009B009B0861680B4313612268D368474925
:100DB0000B40D360237E9B03627ED2031343A17E4C
:100DC0004A031343A26A012A58D0802252011343D6
:100DD000E26813432269022A52D02B432422A25CE8
:100DE00052001343E27E012A4CD0E269C221FF3156
:100DF0008A4202D0216A0A4313432168CA681A430F
:100E0000CA60E26A802149058A420DD0012A0BD0CE
:100E1000022A09D0032A07D0042A05D0052A03D0C4
:100E2000062A01D0072A0AD1206841690722914386
:100E3000416120684169E56A2A400A4342612268AB
:100E4000D26823490A409A422BD0A36B12229343C3
:100E5000023A1343A363E36B0F3A1343E3630120A6
:100E60002EE0C3633422835400F000FF78E7136858
:100E7000DB079AD4D3681B0497D489E72A00A6E736
:100E80000425AAE7002903D1802252021343ACE7CC
:100E9000A26B20210A43A263E26B1F390A43E2637B
:100EA000A3E70023E363A36B03229343023A1343B4
:100EB000A363002004E0A36B10221343A36301206B
:100EC00070BD0120FCE7C046FDFEFFFF1902FEFFDA
:100ED000E7FF3F8310B5040003689B685B0723D4DA
:100EE0003423C35C012B21D034230122C254437E1E
:100EF000012B14D10020A36B0D4A1A4080235B0004
:100F00001343A3630023E3633422A3542368183AF2
:100F10001A602268936804210B43936010BDFFF7A9
:100F2000BFFE0028FAD1E6E70220F7E70220F5E746
:100F3000FEF0FFFF10B504003423C35C012B17D073
:100F400034230122C254FFF739FE002803D0342392
:100F50000022E25410BD2000FFF75EFE0028F6D10B
:100F6000A36B044A13400432FF321343A363EEE73A
:100F70000220EFE7FEFEFFFFF8B504000E00476910
:100F8000082F04D00368DB68DB0718D40C27FFF7B1
:100F9000ABFD050023681A6817421FD1731CF9D0F6
:100FA000002E15D123681B681F42F3D1A36B0422C6
:100FB0001343A36334230022E254032032E0836B03
:100FC00020221343836334230022C254012029E0EA
:100FD000FFF78AFD401BB042DCD9E3E7A16B80221A
:100FE00092000A43A263D968C0221201114213D1B0
:100FF000A27E002A10D11A6812070DD59A685207EE
:1010000011D45A680C218A435A60A36B0B4A1340CF
:101010000432FF321343A363207E00280CD12368DF
:101020000C221A60F8BDA36B20221343A363E36B69
:101030001F3A1343E363EFE70020F3E7FEFEFFFFF1
:101040000368186C704770477047704770B50400AC
:1010500003681D685E686A0701D5720703D42A0712
:1010600027D5320725D5A26BD20604D4A16B8022E6
:1010700092000A43A263D968C0221201114212D120
:10108000A27E002A0FD12A070DD59A6852072DD4C7
:101090005A680C218A435A60A36B1F4A13400432DA
:1010A000FF321343A3632000FFF7CDFF23680C2218
:1010B0001A602B0601D5330621D4EB0615D5F306AD
:1010C00013D5A36A012B03D02368DB68DB0709D59E
:1010D000E36B02221343E36323680E321A6020009D
:1010E000FFF7B3FF236810221A6070BDA36B2022A4
:1010F0001343A363E36B1F3A1343E363D3E7A26B8A
:1011000080235B021343A3632000FFF79DFF236846
:1011100080221A60D1E7C046FEFEFFFF30B583B0E3
:101120000400002301933433C35C012B00D18AE017
:1011300034230122C25403689A68520775D4434A83
:101140004868904256D09A6A01200D68A840024330
:101150009A62E36A8022520593421ED0012B1CD072
:10116000022B1AD0032B18D0042B16D0052B14D029
:10117000062B12D0072B10D022685069072303409A
:101180008868984209D050690723984350612068C5
:1011900042698D682B40134343610B681A00103A73
:1011A000022A4CD82A4A1268102B0ED0112B09D0D3
:1011B00080235B041343264A13600B68102B07D06F
:1011C000002037E08023DB03F4E780231B04F1E7F2
:1011D000204B18682049FEF7A1FF83001B185B0015
:1011E000019302E0019B013B0193019B002BF9D18C
:1011F00000201FE09A6A01200D68A84082439A628D
:101200000B681A00103A022A1BD8114A1268102BD8
:1012100009D0112B05D0114B13400D4A136000204B
:1012200008E00F4BF8E70F4BF6E7836B20221343E0
:101230008363012034230022E25403B030BD002038
:10124000F8E70020F6E70220F7E7C04601100000AB
:10125000082701400400002040420F00FFFFFFFE6E
:10126000FFFFBFFFFFFF7FFF70B5002811DB830882
:10127000134EC0339B009D5903242040C000FF2221
:1012800014008440A54389010A4082402A439A51B0
:1012900070BD0F230340083B9B0806339B00094A9F
:1012A000944663445C6803221040C000FC32150081
:1012B0008540AC4389010A40824022435A60E7E7F7
:1012C00000E100E000ED00E0002805DB1F231840EE
:1012D0001E3B8340014A13607047C04600E100E0B6
:1012E000013880235B0498420FD2094A50600948B4
:1012F000036A1B021B0AC02109060B430362002379
:10130000936007331360002070470120FCE7C0465C
:1013100010E000E000ED00E0F0B583B0002357E0FE
:1013200084685F000326BE40B4432600CC68BC40FE
:1013300034438460446894434A6816090122324069
:101340009A402243426053E0DC080834A400265847
:1013500005321A4092000F279740BE430F6997400D
:101360003A003243225057E0032600E00026A64010
:1013700034003C4302329200444E9451444A9468F3
:10138000EA432600AE434F68FF0201D52C432600F6
:101390003F4CA660E468260016404F68BF0201D5A6
:1013A0002C4326003A4CE6606468260016404F68DD
:1013B000BF0301D52C432600354C666024682240CB
:1013C0004E68F60301D52A002243314C22600133D6
:1013D0000C682200DA4057D001229A4025001540BF
:1013E0001442F4D003244E683440013C012C97D9B8
:1013F00003224C682240032A09D0C2685E000324FD
:10140000B440A24314008A68B2402243C26003225F
:101410004C682240022A97D004685E00032217001D
:10142000B740BC434F683A40B24022430260C022FA
:1014300092024C681442CAD0164CA6690122164387
:10144000A661A46922400192019A9A08941CA40002
:101450000E4EA75903241C40A4000F26A640B743F4
:101460009026F605B04281D00B4EB04208D00B4E0C
:10147000B04207D00A4EB04200D175E7052676E7A4
:10148000012674E7022672E703B0F0BD00000140B8
:101490000004014000100240000400480008004819
:1014A000000C004803690B4201D001207047002066
:1014B000FCE7426913000B401B049143194381610F
:1014C0007047704710B5054B5B69184200D110BDDD
:1014D000024B5861FFF7F5FFF9E7C04600040140F1
:1014E00030B5036A012293430362036A4268846948
:1014F0007325AC430D682C430225AB438D682B4309
:10150000144DA84208D0144DA84205D0134DA8424E
:1015100002D0134DA84205D10825AB43CD682B431B
:101520000425AB430B4DA84208D00B4DA84205D073
:101530000A4DA84202D00A4DA84205D1094D2A40C1
:101540004D692A438D692A43426084614A68426337
:10155000036230BD002C01400040014000440140C6
:1015600000480140FFFCFFFF70B5036A194A1340B1
:101570000362036A4268C4697325AC430E6826435C
:10158000154C23408C6824022343144CA04219D0EC
:10159000124CA04208D0124CA04205D0114CA042DF
:1015A00002D0114CA04207D1104C14404A691201DC
:1015B00022438C6925012A434260C6614A68C2639E
:1015C000036270BD0A4C1C40CB681B022343094CCC
:1015D0002340DDE7FFFEFFFFFFFDFFFF002C014082
:1015E000004001400044014000480140FFCFFFFFA0
:1015F000FFF7FFFFFFFBFFFF30B5036A134A1340FD
:101600000362026A4368C469114D2C400D682D02C3
:101610002C43104D15408A6812032A430E4DA842F0
:1016200008D00E4DA84205D00D4DA84202D00D4D58
:10163000A84204D10C4D2B404D69AD012B434360B2
:10164000C4614B680364026230BDC046FFEFFFFF18
:10165000FF8CFFFFFFDFFFFF002C01400040014037
:101660000044014000480140FFBFFFFF30B5036A5E
:10167000046A0125AC4304628469EF35AC4312016E
:1016800022430A24A3430B438261036230BD00005E
:1016900030B5036A1024A34303628469036A054DCD
:1016A0002C4012032243A024A34309011943826161
:1016B000016230BDFF0FFFFF8368702293430B432D
:1016C00007210B4383607047704700000368214A7D
:1016D000904206D08022D205904202D01E4A90420B
:1016E00003D1702293434A6813431A4A904212D09E
:1016F0008022D20590420ED0174A90420BD0174A52
:10170000904208D0164A904205D0164A904202D024
:10171000154A904203D1154A1340CA6813438022E8
:1017200093434A69134303608B68C3620B68836207
:10173000084B984208D00A4B984205D0094B984272
:1017400002D0094B984201D10B6903630123436125
:101750007047C046002C01400004004000200040BB
:10176000004001400044014000480140FFFCFFFFF1
:1017700070B5041E26D03D23C35C002B1CD03D2534
:1017800002236355210001C9FFF7A0FF0123462270
:10179000A354083AA3540132A3540132A354013292
:1017A000A3540132A3540132A3540132A354013291
:1017B000A3546355002070BD3C330022C25400F096
:1017C00085FADCE70120F6E770B5041E26D03D233C
:1017D000C35C002B1CD03D2502236355210001C9A9
:1017E000FFF774FF01234622A354083AA3540132A1
:1017F000A3540132A3540132A3540132A354013241
:10180000A3540132A3540132A3546355002070BD88
:101810003C330022C254FFF757FFDCE70120F6E714
:1018200070B5036A102293430362036A42688469B5
:10183000174D2C400D682D0225432024A3438C68AE
:1018400024012343134CA04219D0124CA04208D0CB
:10185000114CA04205D0114CA04202D0104CA04225
:1018600007D1104C14404A69920022438C69A600AB
:101870003243426085614A688263036270BD80249E
:10188000A3431C00CB681B0123434024A343DCE794
:10189000FF8CFFFF002C014000400140004401404C
:1018A00000480140FFF3FFFF70B504000D003C232A
:1018B000C35C012B00D16AE03C230121C154082AFA
:1018C00050D01CD8002A38D0042A16D1290000682C
:1018D000FFF7A6FF2268916980231B010B439361E8
:1018E000226893692B490B40936121688B692A69AF
:1018F000120213438B6100201BE0080019E00C2A40
:1019000016D129000068FFF777FE2268D16980238D
:101910001B010B43D3612268D3691E490B40D3617D
:101920002168CB692A6912021343CB61002000E0D1
:1019300001203C230022E25470BD29000068FFF71B
:10194000CFFD2268936908210B4393612268936954
:1019500004398B4393612268936929690B4393612E
:101960000020E6E729000068FFF7FEFD2268D36942
:1019700008210B43D3612268D36904398B43D361B7
:101980002268D36929690B43D3610020D1E7022083
:10199000D2E7C046FFFBFFFF30B58468034D2C4003
:1019A0001B0213430B432343836030BDFF00FFFF43
:1019B00010B504003C23C35C012B00D178E03C232C
:1019C0000122C25401330132C2540268936839487B
:1019D000034093600B68602B50D02AD8402B58D01E
:1019E0000CD9502B23D1CA6849682068FFF73EFE06
:1019F00050212068FFF760FE002005E0202B0ED06C
:101A000009D9302B0BD001203D230122E254013BA8
:101A10000022E25410BD002B01D0102B05D119007B
:101A20002068FFF749FE0020EEE70120ECE70120E7
:101A3000EAE780225201934236D0802292019342FB
:101A40000DD1CB684A6889682068FFF7A5FF226836
:101A500091688023DB010B4393600020D4E7702B57
:101A600024D1CB684A6889682068FFF795FF22680F
:101A7000936877210B4393600020C5E7CA684968E3
:101A80002068FFF705FE60212068FFF715FE0020A3
:101A9000BAE7CA6849682068FFF7E8FD4021206876
:101AA000FFF70AFE0020AFE70020ADE70120ABE71B
:101AB0000220AFE78800FFFF10B51F231940012463
:101AC0008C40036AA3430362036A8A4013430362A0
:101AD00010BD000010B50400002936D13E23C35CC0
:101AE000013B5A1E9341DBB2002B62D1002945D144
:101AF0003E330222E25401222068FFF7DDFF236813
:101B00002E4A934208D02E4A934205D02D4A934242
:101B100002D02D4A934204D1596C802212020A430A
:101B20005A642368254A934238D08022D2059342D2
:101B300034D0264A934231D0214A93422ED01A689B
:101B400001210A431A60002034E0042908D0082942
:101B50000DD04123C35C013B5A1E9341DBB2C3E766
:101B60003F23C35C013B5A1E9341DBB2BCE74023D9
:101B7000C35C013B5A1E9341DBB2B5E7042905D093
:101B8000082907D041230222E254B4E73F2302226E
:101B9000E254B0E740230222E254ACE799680722FE
:101BA0000A40062A07D01A6801210A431A60002059
:101BB00000E0012010BD0020FCE7C046002C0140E1
:101BC0000040014000440140004801400004004042
:101BD00030B53C23C35C012B28D03C230122C254E6
:101BE00001330132C25403685A689C687025AA43C5
:101BF0000D682A435A6003680D4A934209D0802237
:101C0000D205934205D00B4A934202D00A4A93422E
:101C100004D1802294434A6814439C603D230122EE
:101C2000C254013B0022C254002030BD0220FCE718
:101C3000002C0140000400400040014082B00A4BEB
:101C4000996901221143996199690A400092009AA9
:101C5000DA69802149050A43DA61DB690B400193A7
:101C6000019B02B07047C0460010024010B588B01A
:101C700004001422002103A800F0CAF82268114BC6
:101C80009A4201D008B010BD0F4B996980208000A6
:101C9000014399619A6902400192019A5A6980212F
:101CA00089020A435A615B690B400293029B4023FD
:101CB00003933D3B04937138FF3803A9C005FFF738
:101CC0002BFBDFE7002401400010024082B00268D5
:101CD000074B9A4201D002B07047064AD1690223ED
:101CE0001943D161D26913400193019BF3E7C046C8
:101CF000000400400010024010B586B00400142219
:101D0000002101A800F084F822680C4B9A4201D00F
:101D100006B010BD0A4A51698020C00201435161DA
:101D2000536903400093009B012301930222029216
:101D3000059301A90348FFF7EFFAE9E70004004023
:101D40000010024000040048014B18607047C04674
:101D5000040000200D488546FEF728FE0C480D497A
:101D60000D4A002302E0D458C4500433C4188C42F6
:101D7000F9D30A4A0A4C002301E013600432A2425C
:101D8000FBD300F04DF8FEF7C1FDFEE70020002078
:101D9000000000206000002088270008600000206C
:101DA00060020020FEE700000CB430B5174B0C00B9
:101DB0001D689DB0002908DA8B2301202B6040426A
:101DC0001DB030BC08BC02B0184782236A469B0095
:101DD0009382002302900690994200D04B1E0493F8
:101DE000079301236A465B42D382280021AB209AE5
:101DF00002A9019300F09AF9431C01DA8B232B60AE
:101E0000002CDDD00022029B1A70D9E75C00002074
:101E100003008218934200D1704719700133F9E72B
:101E200070B500260C4C0D4D641BA410A64209D1C0
:101E3000002600F07DFC0A4C0A4D641BA410A6424B
:101E400005D170BDB300EB5898470136EEE7B300FB
:101E5000EB5898470136F2E78027000880270008F2
:101E600084270008802700087047704770B5050078
:101E7000002910D00C1F2368002B00DAE41828007A
:101E800000F0E2F81D4A1368002B05D1636014606E
:101E9000280000F0E1F870BDA34208D9206821189D
:101EA0008B42F3D119685B6809182160EEE71A00CC
:101EB0005B68002B01D0A342F9D911685018A042E9
:101EC0000BD120680918501811608342E0D11868BE
:101ED0005B68411811605360DAE7A04202D90C2315
:101EE0002B60D5E7206821188B4203D119685B6805
:101EF0000918216063605460CAE7C046540200209C
:101F000070B50F4E0D0031680400002902D100F0B9
:101F1000A1FB30602900200000F09CFB431C0AD08C
:101F20000323C51C9D43A84207D0291A200000F0B6
:101F300091FB013001D101256D42280070BDC046E2
:101F400058020020F7B50322CB1C93430833060048
:101F50001F000C2B38D20C27B94237D8300000F0C4
:101F600073F8384B00931B681C00002C33D13900E8
:101F70003000FFF7C5FF0400431C5ED1009B1C68C6
:101F80002500002D4ED1002C51D023682900E318E4
:101F90003000019300F05EFB019B834247D1236830
:101FA0003000FF1A3900FFF7ABFF01303FD0236844
:101FB000DB192360009B1B68002B40D05A68A242AB
:101FC00033D100225A6014E0002BC5DA0C2300251F
:101FD00033602800FEBD2168C91B20D40B2918D905
:101FE000E2192760A34212D1009B1A606368116056
:101FF00053603000250000F02FF807220B35231D19
:102000009543EA1A9D42E4D05B1BA350E1E75A6076
:10201000ECE76268A342D5D1009B1A60E9E7230090
:102020006468A2E72C006D68ABE71300C4E70C23DB
:102030003000336000F010F8CBE72760D9E75B6031
:10204000FFDEC0465402002010B50248FFF70CFF27
:1020500010BDC0465002002010B50248FFF705FF32
:1020600010BDC04650020020F0B585B00193039228
:102070008E68019A07000C000B68964231D88A8955
:102080009021C9000A4229D0032021695B1A0293DA
:1020900063694343DD0FED18019B029801331B1860
:1020A0006D10AB4200D91D00520529D5290038001A
:1020B000FFF748FF061E2DD0029A216900F0E7FACB
:1020C000A289194B1A4080231343A381029B2661E6
:1020D000F61826606561019EED1AA560019B9E427F
:1020E00000D9019E32000399206800F09FFA002079
:1020F000A3689B1BA36023689B19236005B0F0BDF8
:102100002A00380000F0CCFA061EDFD13800216921
:10211000FFF7ACFE0C2301203B60A289343313434C
:10212000A3814042EAE7C0467FFBFFFFF0B5A1B0C4
:1021300003901D008B890F0016001B0611D50B693B
:10214000002B0ED14021FFF7FDFE386038610028DA
:1021500005D10C23039A0138136021B0F0BD402350
:102160007B61002308AC6361203363761033A37670
:10217000079535002B78002B01D0252B48D1AB1BC0
:102180000593B5420BD0320039000398FFF76CFF7E
:10219000013000D1AFE06369059A9B1863612B7829
:1021A000002B00D1A7E0012200235242626004A963
:1021B000543252186E1C2360E360A3601370A36551
:1021C000554B052218003178059300F055FA751C1F
:1021D00000281FD12268D30604D5532304A95B1815
:1021E00020211970130704D5532304A95B182B2150
:1021F000197033782A2B16D0350000210A20E368A5
:102200002A786E1C303A092A4ED9002911D117E0DC
:102210000135AFE7059B2268C01A012383401343B1
:102220002E002360CCE7079B191D1B680791002B2C
:1022300001DB0B9304E05B42E36002231343236062
:102240002B782E2B0AD16B782A2B35D1079B0235A0
:102250001A1D1B680792002B2BDB09932F4E0322BC
:102260003000297800F008FA002806D04023801BAF
:1022700083402268013513432360297806222848C9
:102280006E1C217600F0F8F900283CD0254B002B7D
:1022900025D10722079B07339343083307936369CC
:1022A000049A9B18636164E74343350001219B183E
:1022B000A6E701235B42D0E700230A201A0001357C
:1022C000636029786E1C3039092903D9002BC5D0E9
:1022D0000992C3E74243350001235218F1E707AAE8
:1022E000009221003A00104B039800E000BF0490D8
:1022F000049B0133D3D1BB890D985B0600D42CE736
:102300000120404229E707AA009221003A00064B2B
:10231000039800F07BF8EAE74C27000852270008F2
:10232000562700080000000069200008F7B51600D5
:1023300001938A680B690C000090934200DA130045
:102340002200336043321278002A01D00133336017
:1023500023689B0602D53368023333602268062364
:1023600015001D401A4227D0230043331B785A1E04
:1023700093412268920630D4220001990098089D6A
:102380004332A847013025D0062223680025134098
:10239000042B05D13368E568ED1AEB43DB171D40CC
:1023A000A3682269934201DD9B1AED180026B5420D
:1023B00020D1002010E00135E36832689B1AAB425F
:1023C000D2DD2200012301990098089F1932B847F5
:1023D0000130F0D101204042FEBD3020E1184331F0
:1023E000087021005A1C45310978A2184332023383
:1023F0001170C1E72200012301990098089F1A3249
:10240000B8470130E6D00136D1E70000F0B58BB017
:1024100006920A0043320793059004920A7E0C004C
:10242000109B782A09D8622A0BD8002A00D1BEE076
:102430007C490391582A00D193E02600423632703D
:1024400022E0100063381528F7D8FDF75DFE16006E
:102450001F00F6FFF6FFF6FFF6FF1F00F6FFF6FF80
:10246000F6FFF6FFA30036008300F6FFF6FFB40088
:10247000F6FF3600F6FFF6FF870026001A684236A0
:10248000111D1960136833700123A2E018680968F0
:10249000021D0D060BD505681A60002D03DA2D23E9
:1024A000049A6D4213705F4B0A2703931BE0056883
:1024B0001A604906F1D52DB2EFE70D681968081DBD
:1024C00018602E0601D50D6803E06D06FBD50D687A
:1024D000ADB2544B082703936F2A00D00237230074
:1024E000002243331A706368A360002B03DB0421CE
:1024F00022688A432260002D02D1049E002B0CD05A
:10250000049E28003900FDF78FFE039B013E5B5CB3
:1025100033702B0005009F42F3D9082F09D123689F
:10252000DB0706D5626823699A4202DC3023013E4C
:102530003370049B9B1B2361079B2100009305982C
:10254000069B09AAFFF7F2FE013047D10120404265
:102550000BB0F0BD202209680A432260782232497C
:102560000391210045310A701968226820C91006BC
:1025700002D4500600D5ADB21960D30702D520238E
:10258000134323601027002DA9D1202223689343F1
:102590002360A4E71A680D68101D49691860136864
:1025A0002E0601D5196002E06D06FBD519800023C7
:1025B000049E2361C0E71A68111D19601668002186
:1025C0003000626800F058F8002801D0801B60607D
:1025D000636823610023049A1370ADE73200236916
:1025E00006990598079DA8470130AFD023689B073F
:1025F00015D4099BE0689842AADA1800A8E72200DF
:10260000012306990598079E1932B04701309DD0E5
:102610000135E368099A9B1AAB42F0DCE9E7002533
:10262000F7E7C0465D2700086E27000810B588420E
:1026300002D98B18984203D3002307E08B5C8354A4
:10264000013AFBD210BDCC5CC45401339A42FAD19A
:10265000F8E70000002370B5064D040008002B6069
:1026600000F056F8431C03D12B68002B00D02360E8
:1026700070BDC0464C020020C9B28218904201D100
:102680000020704703788B42FBD00130F6E700232F
:1026900010B59A4200D110BDCC5CC4540133F8E7A8
:1026A000F7B507000E001400002905D11100FFF74F
:1026B00049FC05002800FEBD002A03D1FFF7D6FB28
:1026C0002500F7E700F01BF80190844203D835009D
:1026D0004308A342EED321003800FFF733FC051E68
:1026E000E8D0019B22009C4200D91A00310028004A
:1026F000FFF7CDFF31003800FFF7B8FBDAE70B1F1B
:102700001B68181F002B01DA0B58C0187047000017
:10271000054A03001168002901D1044911601068BD
:10272000C31813607047C0465C020020600200209E
:10273000F8B5C046F8BC08BC9E467047F8B5C04620
:08274000F8BC08BC9E4670477E
:10274800256C7500232D302B2000686C4C006566C5
:1027580067454647003031323334353637383941EA
:102768004243444546003031323334353637383900
:08277800616263646566000004
:04278000E900000864
:04278400C100000888
:10278800F401000000127A000100000004000000BB
:1027980000000000140100207C010020E40100205A
:1027A8000000000000000000000000000000000021
:1027B8000000000000000000000000000000000011
:1027C8000000000000000000000000000000000001
:1027D80000000000000000000000000010000020C1
:0400000508001D557D
:00000001FF
