:020000040800F2
:10000000002000208D1900088109000883090008DC
:1000100000000000000000000000000000000000E0
:10002000000000000000000000000000850900083A
:10003000000000000000000087090008890900088E
:10004000DD190008DD190008DD190008DD190008B8
:10005000DD1900082D060008DD190008DD1900086B
:10006000DD190008DD190008DD19000891090008F4
:10007000DD190008DD190008DD190008DD19000888
:10008000DD190008DD19000800000000DD19000876
:10009000DD190008DD190008DD190008DD19000868
:1000A000DD190008DD190008DD190008DD19000858
:1000B000DD19000800000000DD1900080000000044
:1000C00010B5064C2378002B07D1054B002B02D02E
:1000D000044800E000BF0123237010BD2818002051
:1000E00000000000381A0008044B10B5002B03D0A4
:1000F0000349044800E000BF10BDC04600000000F6
:100100002C180020381A0008002243088B4274D3B0
:1001100003098B425FD3030A8B4244D3030B8B4208
:1001200028D3030C8B420DD3FF22090212BA030C11
:100130008B4202D31212090265D0030B8B4219D3F2
:1001400000E0090AC30B8B4201D3CB03C01A524112
:10015000830B8B4201D38B03C01A5241430B8B425A
:1001600001D34B03C01A5241030B8B4201D30B0343
:10017000C01A5241C30A8B4201D3CB02C01A52416A
:10018000830A8B4201D38B02C01A5241430A8B422D
:1001900001D34B02C01A5241030A8B4201D30B0216
:1001A000C01A5241CDD2C3098B4201D3CB01C01A30
:1001B000524183098B4201D38B01C01A524143093A
:1001C0008B4201D34B01C01A524103098B4201D328
:1001D0000B01C01A5241C3088B4201D3CB00C01A95
:1001E000524183088B4201D38B00C01A524143080D
:1001F0008B4201D34B00C01A5241411A00D2014632
:10020000524110467047FFE701B5002000F006F8A4
:1002100002BDC0460029F7D076E770477047C04658
:1002200010B586B004AC08220021200001F0D7FBF5
:100230001E4B5A698021C9030A435A615A690A4010
:100240000392039A5A69802189020A435A615A69C2
:100250000A400292029A5A698021C9020A435A61ED
:100260005B690B400193019B114A93680F218B43FB
:1002700093609021C905CB68032083430122134377
:10028000CB600B6883430B6004922271002363717F
:10029000A271200000F0D0FB00220021052000F018
:1002A0002FFC052000F05CFC06B010BD00100240E1
:1002B0000000014000B583B0094A51690123194388
:1002C0005161526913400193019B002200210B20D0
:1002D00000F016FC0B2000F043FC03B000BDC0464C
:1002E0000010024082B003004000C01800230193B8
:1002F00004E0C046C046019B01330193019B834249
:10030000F7D302B07047000070B51420FFF7EAFF82
:100310000A4CA36980252D022B43A3611420FFF70B
:10032000E1FFA26980231B061343A3611420FFF79A
:10033000D9FFA3691D43A56170BDC04600080048F0
:1003400010B50400454A91698023DB010B4393619A
:1003500043B2002B46DB9022D205916980231B0615
:100360000B439361630645D59022D20591698023A2
:100370005B010B439361A30644D5394A91698023FD
:100380009B000B439361E30643D5354A9169802373
:100390005B000B439361FFF7B7FF230740D5902223
:1003A000D205916980231B020B43936163073FD5FC
:1003B0009022D205916980235B010B439361A307CF
:1003C0003ED5274A916980239B000B439361E40744
:1003D0003DD5234A916980235B000B439361FFF76E
:1003E00093FF10BD9022D205916980231B020B431D
:1003F0009361B7E79022D205916980235B050B4397
:100400009361B8E7164A916980239B040B4393617B
:10041000B9E7134A916980235B040B439361BAE700
:100420009022D205916980231B060B439361BDE79F
:100430009022D205916980235B050B439361BEE74F
:10044000074A916980239B040B439361BFE7044AE9
:10045000916980235B040B439361C0E70008004867
:100460000004004870B50500002403E0FFF768FFB2
:100470000134E4B2285D0028F8D170BD10B5040045
:10048000474A91698023DB050B43936143B2002BFC
:1004900049DB9022D205916980231B060B439361AF
:1004A000630648D59022D205916980235B010B43F6
:1004B0009361A30647D53B4A916980239B000B4378
:1004C0009361E30646D5374A916980235B000B436D
:1004D0009361FFF719FF230743D59022D205916955
:1004E00080231B020B439361630742D59022D20500
:1004F000916980235B010B439361A30741D5294A8E
:10050000916980239B000B439361E40740D5254A02
:10051000916980235B000B439361FFF7F5FE22484E
:10052000FFF7E0FE10BD9022D205916980231B02E7
:100530000B439361B4E79022D205916980235B0558
:100540000B439361B5E7174A916980239B040B43E2
:100550009361B6E7134A916980235B040B4393616F
:10056000B7E79022D205916980231B060B43936164
:10057000BAE79022D205916980235B050B43936112
:10058000BBE7084A916980239B040B439361BCE756
:10059000044A916980235B040B439361BDE7C04625
:1005A0000008004800040048B80B000010B51B4BC1
:1005B0005969802292020A435A6159698022D20203
:1005C0000A435A615969802212030A435A619022F0
:1005D000D20511688223DB050B431360104A1168B2
:1005E000A023DB020B4313600E4A1168A023DB0536
:1005F0000B4313600C48FFF775FE3320FFF73EFFF7
:100600003220FFF73BFF0C20FFF738FF2820FFF7D1
:1006100035FF0120FFF732FF10BDC0460010024039
:1006200000040048000800483075000010B500F0D4
:10063000FDF9314B1860314B1B68C31A632B1FD96E
:100640002E4B18602E4B1A68D3682E490B40D3608E
:100650002D4800F038FB2D4A136801331360032B3B
:1006600012D00120FFF70AFF284B1B68012B20D076
:10067000022B2FD0002B0BD0012000F065FC10BD09
:10068000012000F061FCFAE7130000221A60E8E79D
:100690001F48FFF7E7FE8024A4001E491A482300E4
:1006A0001D4A00F0D5FA164B1B68DA681443DC606B
:1006B000E2E71A48FFF7D6FE8024A4001849124842
:1006C0002300154A00F0C4FA0D4B1B68DA68144386
:1006D000DC60D1E71348FFF7C5FE8024A40012496F
:1006E000094823000C4A00F0B3FA054B1B68DA688E
:1006F0001443DC60C0E7C0464418002020190020E5
:100700008C180020FFFDFFFF481800201C19002056
:1007100008100020000000203C04004004100020CD
:1007200004080020101000201C10002072B6FEE704
:1007300000B58FB0102200210AA801F050F908225C
:10074000002108A801F04BF91C22002101A801F0AA
:1007500046F920488023DB05036000234360836063
:100760001D4A1268013AC26003618033836100F060
:1007700043FD002824D180235B010A9315480AA970
:1007800000F0B4FE00281DD1124800F061FD0028E1
:100790001AD10023089309930E4808A901F034F8F0
:1007A000002813D100230193029303930593094872
:1007B000002201A900F0E8FD002809D10FB000BD1A
:1007C000FFF7B4FFFFF7B2FFFFF7B0FFFFF7AEFF91
:1007D000FFF7ACFF8C1800200008002000B58FB098
:1007E000102200210AA801F0FAF80822002108A826
:1007F00001F0F5F81C22002101A801F0F0F82148D1
:10080000214B0360002343608360204AC260036180
:100810008033836100F0F0FC002828D180235B0145
:100820000A9318480AA900F061FE002821D1154852
:1008300000F03AFD00281ED10023089309931148C7
:1008400008A900F0E1FF002817D1602301930023DD
:100850000293039305930B48082201A900F0C2FDFF
:1008600000280CD1074801F063F80FB000BDFFF776
:100870005DFFFFF75BFFFFF759FFFFF757FFFFF73C
:1008800055FFC046D418002000040040FF030000BC
:1008900010B51A4A136801218B431360174B1B686C
:1008A000DB07FBD4164A136801210B431360144B7A
:1008B0001B689B07FBD5124B1A68F8218A437839CD
:1008C0000A431A605A6870318A435A605A680D495F
:1008D0000A405A605A6803218A435A60084B5B6891
:1008E0000C221A42FAD1084801F04AF8032000F01D
:1008F00059F8002800D110BDFFF718FF0020024072
:1009000000100240FFF8FFFF00127A0070B500F0FF
:1009100071F8FFF74BFEFFF7BBFFFFF781FCFFF716
:10092000C9FCFFF705FFFFF759FF0E48082100F04B
:10093000EDFE0D4D0021280000F06AFE8024A40089
:100940000A490B4823000B4A00F082F90A48FFF7D6
:1009500089FD0A48FFF7C6FC2B68DA681443DC609F
:10096000FEE7C046D41800208C18002000000020AC
:10097000481800203C04004008100020B80B00007C
:10098000FEE7FEE77047704710B500F043F810BD72
:1009900010B5024800F0BCF910BDC0464818002050
:1009A0007047000010B504000F4B1978FA20800042
:1009B000FFF7AAFB01000D4B1868FFF7A5FB00F03D
:1009C000DBF800280DD1032C01D901200AE0013009
:1009D00000222100404200F093F8054B1C600020EB
:1009E00000E0012010BDC046201800201C18002087
:1009F0002418002010B5064A136810210B43136019
:100A00000320FFF7CFFF00F035FF002010BDC046E8
:100A100000200240034A1168034B1B785B181360E7
:100A20007047C0462419002020180020014B186888
:100A30007047C0462419002010B503000079002833
:100A400050D01A68002A57D05879012818D00228A7
:100A500020D000280BD001209A79002A4BD0022AFE
:100A60002CD0032A34D0012A1ED0012043E0234990
:100A70004C6894434C601A680C6822430A60EBE7A8
:100A80001E490868904308601A68486802434A6033
:100A90000020E1E71949086802430A601A684868BB
:100AA00002434A600020D7E71C68144AD168A1437A
:100AB000D1601B6891680B4393601CE01C680F4A6F
:100AC0009168A14391601B68D1680B43D36012E029
:100AD00019680A4A9468214391601B68D1680B43E6
:100AE000D36008E01C68054A1168A14311601968C9
:100AF00053688B43536010BD0020FCE700040140A5
:100B000070B5002811DB8308134DC0339B005C597E
:100B100003221040C000FC3216008640B443890115
:100B20000A40824022435A5170BD0F230340083BC4
:100B30009B0806339B00094A944663445C68032281
:100B40001040C000FC3215008540AC4389010A40CA
:100B5000824022435A60E7E700E100E000ED00E058
:100B6000002805DB1F2318401E3B8340014A136009
:100B70007047C04600E100E0013880235B049842E2
:100B80000FD2094A50600948036A1B021B0AC021A0
:100B900009060B43036200239360073313600020B0
:100BA00070470120FCE7C04610E000E000ED00E0E7
:100BB00070B5066CC56B0124B4406C60046863605A
:100BC0004368102B04D0036899600368DA6070BD35
:100BD00003689A600368D960F9E7000010B5040063
:100BE0000068054B9C4660441421FFF78DFA800095
:100BF0002064024BE36310BDF8FFFDBF000002401C
:100C000070B5041E20D021250223435501680A68CF
:100C10000E4B1A40436880680343E0680343206931
:100C2000034360690343A0690343E069034313433B
:100C30000B602000FFF7D2FF0023A363012262555F
:100C40001F32A354002070BD0120FCE70FC0FFFF3E
:100C500070B504002020205C012832D0202001251E
:100C600025540130205C012804D020230022E254C6
:100C7000022070BD2030013525540020A063256876
:100C800028680126B04328602000FFF791FFE36A3F
:100C9000002B0BD0226813680E210B4313602268CF
:100CA000136801210B4313600020E2E722681368F8
:100CB0000A210B4313602268136806398B431360C3
:100CC000EDE70220D5E710B52123C35C022B03D04A
:100CD00004238363012010BD026813680E218B4337
:100CE000136001680A6801239A430A60016CC26BB1
:100CF0001C008C405460212283541F330022C254B4
:100D0000436B002B02D098470020E4E70020E2E785
:100D100070B5C36B1A6804682568016C04238B40A6
:100D20001A4212D06B0710D523689B0603D42368A0
:100D3000042293432360016CC26B04238B405360F5
:100D4000C36A002B00D0984770BD02238B401A4223
:100D500018D0AB0716D523689B0606D423680A2251
:100D6000934323602123093AC254016CC26B0223CE
:100D70008B40536020230022C254836A002BE3D0AF
:100D80009847E1E708238B401A42DDD02D07DBD5D9
:100D900023680E2293432360016CC26B01231C0065
:100DA0008C4054608363212283541F330022C25439
:100DB000036B002BC8D09847C6E70000F0B583B09E
:100DC000002356E086685F000324BC40A643CC683D
:100DD000BC4034438460446894434E683609012221
:100DE00032409A402243426053E0DE080836B600A3
:100DF000375805321A4092000F249440A7430C69DB
:100E0000944022003A43325056E0032600E0002688
:100E1000A64034003C4302329200444E9451444A6E
:100E20009768EA433E00AE434C68E40201D53E00B9
:100E30002E433F4CA660E7683E0016404C68A40273
:100E400001D53E002E433A4CE66067683E001640EE
:100E50004C68A40301D53E002E43354C66602668DD
:100E600032404C68E40301D52A003243304C226002
:100E700001330C682200DA4056D001229A40250046
:100E800015401442F4D04E6803243440013C012C38
:100E900098D94C6803222240032A08D0C4685E0017
:100EA0000322B24094438A68B2402243C2604C6835
:100EB00003222240022A98D004685E000322170011
:100EC000B740BC434F683A40B240224302604C688E
:100ED000C02292021442CBD0164CA66901221643BE
:100EE000A661A46922400192019A9A08941CA40068
:100EF0000E4EA75903241C40A4000F26A640B7435A
:100F00009026F605B04282D00B4EB04208D00B4E70
:100F1000B04207D00A4EB04200D176E7052677E707
:100F2000012675E7022673E703B0F0BD000001401B
:100F3000000401400010024000040048000800487E
:100F4000000C00487047000010B5054B5B69184263
:100F500000D110BD024B5861FFF7F4FFF9E7C0461E
:100F60000004014030B5036A012293430362056A1D
:100F7000426883697324A3430C681C4302239D4386
:100F80008B682B43154DA84208D0154DA84205D0BB
:100F9000144DA84202D0144DA84206D10825AB43F7
:100FA0001D00CB682B430425AB430C4DA84208D051
:100FB0000B4DA84205D00B4DA84202D00A4DA842C5
:100FC00005D10A4D2A404D6915438A692A4342607A
:100FD00084614A684263036230BDC046002C014010
:100FE000004001400044014000480140FFFCFFFF79
:100FF00030B5036A194A13400362046A4268C36940
:101000007325AB430D681D43154B1C408B681B02B9
:101010002343144CA04219D0124CA04208D0124CC9
:10102000A04205D0114CA04202D0114CA04207D1E1
:10103000104C22404C69240114438A691201224356
:101040004260C5614A68C263036230BD0A4C1C40FD
:10105000CB681B022343094C2340DDE7FFFEFFFF63
:10106000FFFDFFFF002C0140004001400044014013
:1010700000480140FFCFFFFFFFF7FFFFFFFBFFFF2F
:1010800030B5036A134A13400362046A4368C269B5
:10109000114D2A400D682D021543104A14408A68EC
:1010A000120322430E4CA04208D00E4CA04205D0A1
:1010B0000D4CA04202D00D4CA04204D10C4C1C405F
:1010C0004B699B0123434360C5614B680364026223
:1010D00030BDC046FFEFFFFFFF8CFFFFFFDFFFFFCC
:1010E000002C014000400140004401400048014004
:1010F000FFBFFFFF30B5036A046A0125AC430462F9
:101100008469EF35AC43120122430A24A3430B4305
:101110008261036230BD000030B5036A1024A3432E
:1011200003628469036A054D2C4012032243A02404
:10113000A343090119438261016230BDFF0FFFFF24
:101140008368702293430B43693A1343836070476B
:10115000704770470368214A904206D08022D2052A
:10116000904202D01E4A904203D1702293434A68B3
:1011700013431A4A904212D08022D20590420ED0D8
:10118000174A90420BD0174A904208D0164A904214
:1011900005D0164A904202D0154A904203D1154A12
:1011A0001A40CB681343802293434A691343036078
:1011B0008B68C3620B688362084B984208D00A4B65
:1011C000984205D0094B984202D0094B984201D170
:1011D0000B690363012343617047C046002C014043
:1011E0000004004000200040004001400044014055
:1011F00000480140FFFCFFFF70B5041E26D03D23D0
:10120000C35C002B1CD03D2502236355210001C97E
:10121000FFF7A0FF01234622A354083AA35401324A
:10122000A3540132A3540132A3540132A354013216
:10123000A3540132A3540132A3546355002070BD5E
:101240003C330022C25400F02DFBDCE70120F6E71E
:1012500070B5041E26D03D23C35C002B1CD03D2559
:1012600002236355210001C9FFF774FF01234622C1
:10127000A354083AA3540132A3540132A3540132B7
:10128000A3540132A3540132A3540132A3540132B6
:10129000A3546355002070BD3C330022C254FFF7B5
:1012A00057FFDCE70120F6E770B5041E26D03D238A
:1012B000C35C002B1CD03D2502236355210001C9CE
:1012C000FFF748FF01234622A354083AA3540132F2
:1012D000A3540132A3540132A3540132A354013266
:1012E000A3540132A3540132A3546355002070BDAE
:1012F0003C330022C254FFF72CFFDCE70120F6E765
:1013000070B5036A102293430362026A44688369DA
:10131000174D2B400D682D021D4320239A438B68E7
:101320001B011343134A904219D0124A904208D02D
:10133000114A904205D0114A904202D0104A904280
:1013400007D1104A14404A69920022438C69A400D4
:101350001443446085614A688263036270BD8022E1
:1013600093431E00CB681B013343403A9343DCE7B1
:10137000FF8CFFFF002C0140004001400044014071
:1013800000480140FFF3FFFF10B504003C23C35C9D
:10139000012B24D03C230120E054082A1AD008D87D
:1013A000002A12D0042A0CD12068FFF7A9FF0020E0
:1013B00007E00C2A04D12068FFF762FE002000E05D
:1013C00001203C230022E25410BD2068FFF7CAFD33
:1013D0000020F6E72068FFF70BFE0020F1E702206F
:1013E000F2E7000070B504000D003C23C35C012B44
:1013F00000D16AE03C230121C154082A50D01CD8F6
:10140000002A38D0042A16D100682900FFF778FF97
:101410002268916980231B010B43936122689369C1
:101420002B490B40936121688B692A69120213438F
:101430008B6100201BE0080019E00C2A16D100681F
:101440002900FFF71DFE2268D16980231B010B4391
:10145000D3612268D3691E490B40D3612168CB69EF
:101460002A6912021343CB61002000E001203C23D3
:101470000022E25470BD00682900FFF773FD226866
:10148000936908210B4393612268936904398B4364
:1014900093612268936929690B4393610020E6E711
:1014A00000682900FFF7A4FD2268D36908210B43D7
:1014B000D3612268D36904398B43D3612268D3692D
:1014C00029690B43D3610020D1E70220D2E7C0464F
:1014D000FFFBFFFF30B58468034D2C401B02134314
:1014E0000B432343836030BDFF00FFFF10B50400B2
:1014F00008003C23E35C012B00D177E03C23012270
:10150000E25401330132E2542268936838490B40B7
:101510009360016860294FD029D8402957D00CD951
:10152000502922D14168C2682068FFF7E3FD206896
:101530005021FFF705FE002005E020290ED009D933
:1015400030290BD001203D230122E254013B00222F
:10155000E25410BD002901D0102904D12068FFF702
:10156000EFFD0020EFE70120EDE70120EBE780220F
:101570005201914236D08022920191420DD1816870
:101580004268C3682068FFF7A5FF2268916880233E
:10159000DB010B4393600020D5E7702924D18168DB
:1015A0004268C3682068FFF795FF22689368772137
:1015B0000B4393600020C6E74168C2682068FFF7CC
:1015C000ABFD20686021FFF7BBFD0020BBE7416851
:1015D000C2682068FFF78EFD20684021FFF7B0FD4C
:1015E0000020B0E70020AEE70120ACE70220B0E722
:1015F0008800FFFF10B51F23194001248C40036AA7
:10160000A3430362036A8A401343036210BD0000D0
:1016100010B50400002936D13E23C35C013B5A1E9D
:101620009341DBB2002B62D1002945D13E33022227
:10163000E25420680122FFF7DDFF23682E4A93421F
:1016400008D02E4A934205D02D4A934202D02D4A0B
:10165000934204D1596C802212020A435A642368CF
:10166000254A934238D08022D205934234D0264A6C
:10167000934231D0214A93422ED01A6801210A4365
:101680001A60002034E0042908D008290DD0412335
:10169000C35C013B5A1E9341DBB2C3E73F23C35CEB
:1016A000013B5A1E9341DBB2BCE74023C35C013BC4
:1016B0005A1E9341DBB2B5E7042905D0082907D0AB
:1016C00041230222E254B4E73F230222E254B0E76E
:1016D00040230222E254ACE7996807220A40062A16
:1016E00007D01A6801210A431A60002000E0012097
:1016F00010BD0020FCE7C046002C01400040014026
:1017000000440140004801400004004010B50400BE
:10171000002936D13E23C35C013B5A1E9341DBB204
:10172000002B62D1002945D13E330222E2542068C9
:101730000122FFF75FFF23682E4A934208D02E4A0A
:10174000934205D02D4A934202D02D4A934204D1B0
:10175000596C802212020A435A642368254A934234
:1017600038D08022D205934234D0264A934231D0D9
:10177000214A93422ED01A6801210A431A600020A0
:1017800034E0042908D008290DD04123C35C013B73
:101790005A1E9341DBB2C3E73F23C35C013B5A1E91
:1017A0009341DBB2BCE74023C35C013B5A1E93412B
:1017B000DBB2B5E7042905D0082907D0412302226E
:1017C000E254B4E73F230222E254B0E7402302226E
:1017D000E254ACE7996807220A40062A07D01A6843
:1017E00001210A431A60002000E0012010BD002002
:1017F000FCE7C046002C014000400140004401408D
:10180000004801400004004030B53C23C35C012B7C
:1018100028D03C230122C25401330132C254036850
:101820005C689D686E3294430A6822435A6003687C
:101830000D4A934209D08022D205934205D00B4A2B
:10184000934202D00A4A934204D1802295434A68C7
:101850002A439A603D230122C254013B0022C25414
:10186000002030BD0220FCE7002C014000040040B5
:101870000040014082B00A4B9969012211439961ED
:1018800099690A400092009ADA69802149050A4361
:10189000DA61DB690B400193019B02B07047C046DF
:1018A0000010024010B582B0040003688022D20507
:1018B000934204D01A4A934227D002B010BD194A6D
:1018C000D16901231943D161D26913400093009B70
:1018D0001548164B03601023436000238360802269
:1018E000C2608132FF3202618022120142612022F5
:1018F0008261C361FFF784F9002803D10A4B636258
:101900005C62DAE7FEF712FFF8E7064AD1690223C4
:101910001943D161D26913400193019BCDE7C046C1
:101920000004004000100240481800205800024007
:1019300010B586B004001422002101A800F04FF871
:1019400022680C4B9A4201D006B010BD0A4B5A696E
:101950008021C9020A435A615B690B400093009BD6
:101960000123019302220292059301A90348FFF784
:1019700025FAE9E700040040001002400004004896
:10198000014B18607047C0461C1800200D48854662
:10199000FFF706F80C480D490D4A002302E0D45821
:1019A000C4500433C4188C42F9D30A4A0A4C0023A9
:1019B00001E013600432A242FBD300F019F8FEF7F5
:1019C000A5FFFEE7002000200000002028180020CE
:1019D000581A00082818002028190020FEE70300E4
:1019E0008218934200D1704719700133F9E7000063
:1019F00070B500260C4C0D4D641BA410A64209D1F5
:101A0000002600F019F80A4C0A4D641BA410A642E7
:101A100005D170BDB300EB5898470136EEE7B3002F
:101A2000EB5898470136F2E7501A0008501A0008A0
:101A3000541A0008501A0008F8B5C046F8BC08BC93
:101A40009E467047F8B5C046F8BC08BC9E46704735
:041A5000E9000008A1
:041A5400C1000008C5
:101A5800FF010000050200000C0200001202000055
:101A6800180200001E020000250200002B020000E0
:101A780031020000370200003E020000440200006C
:101A88004A02000050020000560200005D020000F9
:101A980063020000690200006F0200007502000086
:101AA8007B02000081020000870200008D02000016
:101AB80093020000990200009F020000A5020000A6
:101AC800AB020000B1020000B7020000BD02000036
:101AD800C3020000C8020000CE020000D4020000C9
:101AE800D9020000DF020000E5020000EA0200005F
:101AF800F0020000F5020000FB02000000030000F5
:101B0800060300000B03000010030000160300008A
:101B18001B03000020030000250300002A03000027
:101B28002F03000034030000390300003E030000C7
:101B380043030000480300004D0300005103000068
:101B4800560300005B0300005F030000640300000D
:101B5800680300006D0300007103000075030000B6
:101B68007A0300007E030000820300008603000061
:101B78008A0300008E030000920300009603000011
:101B8800990300009D030000A1030000A4030000C6
:101B9800A8030000AB030000AF030000B20300007D
:101BA800B5030000B8030000BC030000BF03000039
:101BB800C2030000C5030000C7030000CA030000F9
:101BC800CD030000D0030000D2030000D5030000BD
:101BD800D7030000D9030000DC030000DE03000087
:101BE800E0030000E2030000E4030000E603000055
:101BF800E8030000EA030000EB030000ED03000027
:101C0800EF030000F0030000F2030000F3030000FC
:101C1800F4030000F5030000F6030000F8030000D9
:101C2800F8030000F9030000FA030000FB030000BA
:101C3800FC030000FC030000FD030000FD0300009E
:101C4800FD030000FE030000FE030000FE03000089
:101C5800FE030000FE030000FE030000FE03000078
:101C6800FD030000FD030000FD030000FC0300006D
:101C7800FC030000FB030000FA030000F903000066
:101C8800F8030000F8030000F6030000F503000065
:101C9800F4030000F3030000F2030000F003000067
:101CA800EF030000ED030000EB030000EA0300006F
:101CB800E8030000E6030000E4030000E20300007C
:101CC800E0030000DE030000DC030000D90300008D
:101CD800D7030000D5030000D2030000D0030000A2
:101CE800CD030000CA030000C7030000C5030000BD
:101CF800C2030000BF030000BC030000B8030000DB
:101D0800B5030000B2030000AF030000AB030000FE
:101D1800A8030000A4030000A10300009D03000025
:101D28009903000096030000920300008E03000050
:101D38008A03000086030000820300007E0300007F
:101D48007A03000075030000710300006D030000B2
:101D580068030000640300005F0300005B030000E9
:101D680056030000510300004D0300004803000023
:101D7800430300003E030000390300003403000061
:101D88002F0300002A0300002503000020030000A1
:101D98001B03000016030000100300000B030000E3
:101DA8000603000000030000FB020000F50200002B
:101DB800F0020000EA020000E5020000DF02000075
:101DC800D9020000D4020000CE020000C8020000C0
:101DD800C3020000BD020000B7020000B10200000B
:101DE800AB020000A50200009F020000990200005B
:101DF800930200008D0200008702000081020000AB
:101E08007B020000750200006F02000069020000FA
:101E1800630200005D02000056020000500200004C
:101E28004A020000440200003E020000370200009F
:101E3800310200002B020000250200001E020000F3
:101E480018020000120200000C0200000502000047
:101E5800FF010000F9010000F2010000EC010000A0
:101E6800E6010000E0010000D9010000D3010000F4
:101E7800CD010000C7010000C0010000BA01000048
:101E8800B4010000AE010000A8010000A10100009B
:101E98009B010000950100008F01000089010000EE
:101EA800830100007D01000077010000710100003E
:101EB8006B010000650100005F010000590100008E
:101EC800530100004D0100004701000041010000DE
:101ED8003B01000036010000300100002A0100002B
:101EE800250100001F010000190100001401000075
:101EF8000E0100000901000003010000FE000000BF
:101F0800F8000000F3000000EE000000E800000008
:101F1800E3000000DE000000D9000000D40000004B
:101F2800CF000000CA000000C5000000C00000008B
:101F3800BB000000B6000000B1000000AD000000CA
:101F4800A8000000A30000009F0000009A00000005
:101F580096000000910000008D000000890000003C
:101F680084000000800000007C0000007800000071
:101F780074000000700000006C00000068000000A1
:101F880065000000610000005D0000005A000000CC
:101F980056000000530000004F0000004C000000F5
:101FA8004900000046000000420000003F00000019
:101FB8003C00000039000000370000003400000039
:101FC800310000002E0000002C0000002900000055
:101FD800270000002500000022000000200000006B
:101FE8001E0000001C0000001A000000180000007D
:101FF800160000001400000013000000110000008B
:102008000F0000000E0000000C0000000B00000094
:102018000A00000009000000080000000600000097
:102028000600000005000000040000000300000096
:102038000200000002000000010000000100000092
:102048000100000000000000000000000000000087
:102058000000000000000000000000000000000078
:102068000100000001000000010000000200000063
:10207800020000000300000004000000050000004A
:10208800060000000600000008000000090000002B
:102098000A0000000B0000000C0000000E00000009
:1020A8000F000000110000001300000014000000E1
:1020B80016000000180000001A0000001C000000B4
:1020C8001E00000020000000220000002500000083
:1020D80027000000290000002C0000002E0000004E
:1020E8003100000034000000370000003900000013
:1020F8003C0000003F0000004200000046000000D5
:10210800490000004C0000004F0000005300000090
:10211800560000005A0000005D0000006100000049
:1021280065000000680000006C00000070000000FE
:1021380074000000780000007C00000080000000AF
:1021480084000000890000008D000000910000005C
:10215800960000009A0000009F000000A300000005
:10216800A8000000AD000000B1000000B6000000AB
:10217800BB000000C0000000C5000000CA0000004D
:10218800CF000000D4000000D9000000DE000000ED
:10219800E3000000E8000000EE000000F30000008B
:1021A800F8000000FE000000030100000901000023
:1021B8000E01000014010000190100001F010000B9
:1021C800250100002A01000030010000360100004E
:1021D8003B01000041010000470100004D010000E3
:1021E80053010000590100005F0100006501000073
:1021F8006B01000071010000770100007D01000003
:1022080083010000890100008F0100009501000092
:102218009B010000A1010000A8010000AE01000020
:10222800B4010000BA010000C0010000C7010000AD
:10223800CD010000D3010000D9010000E001000039
:10224800E6010000EC010000F2010000F9010000C5
:102258003801000000000000010000000300000039
:102268000500000007000000090000000B00000046
:102278000D0000000F000000110000001300000016
:102288001500000017000000190000001B000000E6
:102298001D0000001F0000002100000023000000B6
:1022A8002500000027000000290000002B00000086
:1022B8002D0000002F000000310000003300000056
:1022C8003500000037000000390000003B00000026
:1022D8003D0000003F0000004100000043000000F6
:1022E8004500000047000000490000004B000000C6
:1022F8004D0000004F000000510000005300000096
:102308005500000057000000590000005B00000065
:102318005D0000005F000000610000006300000035
:102328006500000067000000690000006B00000005
:102338006D0000006F0000007100000073000000D5
:102348007500000077000000790000007B000000A5
:102358007D0000007F000000810000008300000075
:102368008500000087000000890000008B00000045
:102378008D0000008F000000910000009300000015
:102388009500000097000000990000009B000000E5
:102398009D0000009F000000A1000000A3000000B5
:1023A800A5000000A7000000A9000000AB00000085
:1023B800AD000000AF000000B1000000B300000055
:1023C800B5000000B7000000B9000000BB00000025
:1023D800BD000000BF000000C1000000C3000000F5
:1023E800C5000000C7000000C9000000CB000000C5
:1023F800CD000000CF000000D1000000D300000095
:10240800D5000000D7000000D9000000DB00000064
:10241800DD000000DF000000E1000000E300000034
:10242800E5000000E7000000E9000000EB00000004
:10243800ED000000EF000000F1000000F3000000D4
:10244800F5000000F7000000F9000000FB000000A4
:10245800FD000000FF000000010100000301000072
:102468000501000007010000090100000B01000040
:102478000D0100000F010000110100001301000010
:102488001501000017010000190100001B010000E0
:102498001D0100001F0100002101000023010000B0
:1024A8002501000027010000290100002B01000080
:1024B8002D0100002F010000310100003301000050
:1024C8003501000037010000390100003B01000020
:1024D8003D0100003F0100004101000043010000F0
:1024E8004501000047010000490100004B010000C0
:1024F8004D0100004F010000510100005301000090
:102508005501000057010000590100005B0100005F
:102518005D0100005F01000061010000630100002F
:102528006501000067010000690100006B010000FF
:102538006D0100006F0100007101000073010000CF
:102548007501000077010000790100007B0100009F
:102558007D0100007F01000081010000830100006F
:102568008501000087010000890100008B0100003F
:102578008D0100008F01000091010000930100000F
:102588009501000097010000990100009B010000DF
:102598009D0100009F010000A1010000A3010000AF
:1025A800A5010000A7010000A9010000AB0100007F
:1025B800AD010000AF010000B1010000B30100004F
:1025C800B5010000B7010000B9010000BB0100001F
:1025D800BD010000BF010000C1010000C3010000EF
:1025E800C5010000C7010000C9010000CB010000BF
:1025F800CD010000CF010000D1010000D30100008F
:10260800D5010000D7010000D9010000DB0100005E
:10261800DD010000DF010000E1010000E30100002E
:10262800E5010000E7010000E9010000EB010000FE
:10263800ED010000EF010000F1010000F3010000CE
:10264800F5010000F7010000F9010000FB0100009E
:10265800FD010000FF01000001020000030200006C
:102668000502000007020000090200000B0200003A
:102678000D0200000F02000011020000130200000A
:102688001502000017020000190200001B020000DA
:102698001D0200001F0200002102000023020000AA
:1026A8002502000027020000290200002B0200007A
:1026B8002D0200002F02000031020000330200004A
:1026C8003502000037020000390200003B0200001A
:1026D8003D0200003F0200004102000043020000EA
:1026E8004502000047020000490200004B020000BA
:1026F8004D0200004F02000051020000530200008A
:102708005502000057020000590200005B02000059
:102718005D0200005F020000610200006302000029
:102728006502000067020000690200006B020000F9
:102738006D0200006F0200007102000073020000C9
:102748007502000077020000790200007B02000099
:102758007D0200007F020000810200008302000069
:102768008502000087020000890200008B02000039
:102778008D0200008F020000910200009302000009
:102788009502000097020000990200009B020000D9
:102798009D0200009F020000A1020000A3020000A9
:1027A800A5020000A7020000A9020000AB02000079
:1027B800AD020000AF020000B1020000B302000049
:1027C800B5020000B7020000B9020000BB02000019
:1027D800BD020000BF020000C1020000C3020000E9
:1027E800C5020000C7020000C9020000CB020000B9
:1027F800CD020000CF020000D1020000D302000089
:10280800D5020000D7020000D9020000DB02000058
:10281800DD020000DF020000E1020000E302000028
:10282800E5020000E7020000E9020000EB020000F8
:10283800ED020000EF020000F1020000F3020000C8
:10284800F5020000F7020000F9020000FB02000098
:10285800FD020000FF020000010300000303000066
:102868000503000007030000090300000B03000034
:102878000D0300000F030000110300001303000004
:102888001503000017030000190300001B030000D4
:102898001D0300001F0300002103000023030000A4
:1028A8002503000027030000290300002B03000074
:1028B8002D0300002F030000310300003303000044
:1028C8003503000037030000390300003B03000014
:1028D8003D0300003F0300004103000043030000E4
:1028E8004503000047030000490300004B030000B4
:1028F8004D0300004F030000510300005303000084
:102908005503000057030000590300005B03000053
:102918005D0300005F030000610300006303000023
:102928006503000067030000690300006B030000F3
:102938006D0300006F0300007103000073030000C3
:102948007503000077030000790300007B03000093
:102958007D0300007F030000810300008303000063
:102968008503000087030000890300008B03000033
:102978008D0300008F030000910300009303000003
:102988009503000097030000990300009B030000D3
:102998009D0300009F030000A1030000A3030000A3
:1029A800A5030000A7030000A9030000AB03000073
:1029B800AD030000AF030000B1030000B303000043
:1029C800B5030000B7030000B9030000BB03000013
:1029D800BD030000BF030000C1030000C3030000E3
:1029E800C5030000C7030000C9030000CB030000B3
:1029F800CD030000CF030000D1030000D303000083
:102A0800D5030000D7030000D9030000DB03000052
:102A1800DD030000DF030000E1030000E303000022
:102A2800E5030000E7030000E9030000EB030000F2
:102A3800ED030000EF030000F1030000F3030000C2
:102A4800F5030000F7030000F9030000FB03000092
:102A5800FD0300005361770053696E6500000000B4
:102A6800547269616E676C65000000000000000028
:102A780003000000070000000B0000000F0000002A
:102A880013000000170000001B0000001F000000DA
:102A980023000000270000002B0000002F0000008A
:102AA80033000000370000003B0000003F0000003A
:102AB80043000000470000004B0000004F000000EA
:102AC80053000000570000005B0000005F0000009A
:102AD80063000000670000006B0000006F0000004A
:102AE80073000000770000007B0000007F000000FA
:102AF80083000000870000008B0000008F000000AA
:102B080093000000970000009B0000009F00000059
:102B1800A3000000A7000000AB000000AF00000009
:102B2800B3000000B7000000BB000000BF000000B9
:102B3800C3000000C7000000CB000000CF00000069
:102B4800D3000000D7000000DB000000DF00000019
:102B5800E3000000E7000000EB000000EF000000C9
:102B6800F3000000F7000000FB000000FF00000079
:102B780003010000070100000B0100000F01000025
:102B880013010000170100001B0100001F010000D5
:102B980023010000270100002B0100002F01000085
:102BA80033010000370100003B0100003F01000035
:102BB80043010000470100004B0100004F010000E5
:102BC80053010000570100005B0100005F01000095
:102BD80063010000670100006B0100006F01000045
:102BE80073010000770100007B0100007F010000F5
:102BF80083010000870100008B0100008F010000A5
:102C080093010000970100009B0100009F01000054
:102C1800A3010000A7010000AB010000AF01000004
:102C2800B3010000B7010000BB010000BF010000B4
:102C3800C3010000C7010000CB010000CF01000064
:102C4800D3010000D7010000DB010000DF01000014
:102C5800E3010000E7010000EB010000EF010000C4
:102C6800F3010000F7010000FB010000FF01000074
:102C780003020000070200000B0200000F02000020
:102C880013020000170200001B0200001F020000D0
:102C980023020000270200002B0200002F02000080
:102CA80033020000370200003B0200003F02000030
:102CB80043020000470200004B0200004F020000E0
:102CC80053020000570200005B0200005F02000090
:102CD80063020000670200006B0200006F02000040
:102CE80073020000770200007B0200007F020000F0
:102CF80083020000870200008B0200008F020000A0
:102D080093020000970200009B0200009F0200004F
:102D1800A3020000A7020000AB020000AF020000FF
:102D2800B3020000B7020000BB020000BF020000AF
:102D3800C3020000C7020000CB020000CF0200005F
:102D4800D3020000D7020000DB020000DF0200000F
:102D5800E3020000E7020000EB020000EF020000BF
:102D6800F3020000F7020000FB020000FF0200006F
:102D780003030000070300000B0300000F0300001B
:102D880013030000170300001B0300001F030000CB
:102D980023030000270300002B0300002F0300007B
:102DA80033030000370300003B0300003F0300002B
:102DB80043030000470300004B0300004F030000DB
:102DC80053030000570300005B0300005F0300008B
:102DD80063030000670300006B0300006F0300003B
:102DE80073030000770300007B0300007F030000EB
:102DF80083030000870300008B0300008F0300009B
:102E080093030000970300009B0300009F0300004A
:102E1800A3030000A7030000AB030000AF030000FA
:102E2800B3030000B7030000BB030000BF030000AA
:102E3800C3030000C7030000CB030000CF0300005A
:102E4800D3030000D7030000DB030000DF0300000A
:102E5800E3030000E7030000EB030000EF030000BA
:102E6800F3030000F7030000FB030000FF0300006A
:102E7800FB030000F7030000F3030000EF0300006A
:102E8800EB030000E7030000E3030000DF0300009A
:102E9800DB030000D7030000D3030000CF030000CA
:102EA800CB030000C7030000C3030000BF030000FA
:102EB800BB030000B7030000B3030000AF0300002A
:102EC800AB030000A7030000A30300009F0300005A
:102ED8009B03000097030000930300008F0300008A
:102EE8008B03000087030000830300007F030000BA
:102EF8007B03000077030000730300006F030000EA
:102F08006B03000067030000630300005F03000019
:102F18005B03000057030000530300004F03000049
:102F28004B03000047030000430300003F03000079
:102F38003B03000037030000330300002F030000A9
:102F48002B03000027030000230300001F030000D9
:102F58001B03000017030000130300000F03000009
:102F68000B0300000703000003030000FF0200003A
:102F7800FB020000F7020000F3020000EF0200006D
:102F8800EB020000E7020000E3020000DF0200009D
:102F9800DB020000D7020000D3020000CF020000CD
:102FA800CB020000C7020000C3020000BF020000FD
:102FB800BB020000B7020000B3020000AF0200002D
:102FC800AB020000A7020000A30200009F0200005D
:102FD8009B02000097020000930200008F0200008D
:102FE8008B02000087020000830200007F020000BD
:102FF8007B02000077020000730200006F020000ED
:103008006B02000067020000630200005F0200001C
:103018005B02000057020000530200004F0200004C
:103028004B02000047020000430200003F0200007C
:103038003B02000037020000330200002F020000AC
:103048002B02000027020000230200001F020000DC
:103058001B02000017020000130200000F0200000C
:103068000B0200000702000003020000FF0100003D
:10307800FB010000F7010000F3010000EF01000070
:10308800EB010000E7010000E3010000DF010000A0
:10309800DB010000D7010000D3010000CF010000D0
:1030A800CB010000C7010000C3010000BF01000000
:1030B800BB010000B7010000B3010000AF01000030
:1030C800AB010000A7010000A30100009F01000060
:1030D8009B01000097010000930100008F01000090
:1030E8008B01000087010000830100007F010000C0
:1030F8007B01000077010000730100006F010000F0
:103108006B01000067010000630100005F0100001F
:103118005B01000057010000530100004F0100004F
:103128004B01000047010000430100003F0100007F
:103138003B01000037010000330100002F010000AF
:103148002B01000027010000230100001F010000DF
:103158001B01000017010000130100000F0100000F
:103168000B0100000701000003010000FF00000040
:10317800FB000000F7000000F3000000EF00000073
:10318800EB000000E7000000E3000000DF000000A3
:10319800DB000000D7000000D3000000CF000000D3
:1031A800CB000000C7000000C3000000BF00000003
:1031B800BB000000B7000000B3000000AF00000033
:1031C800AB000000A7000000A30000009F00000063
:1031D8009B00000097000000930000008F00000093
:1031E8008B00000087000000830000007F000000C3
:1031F8007B00000077000000730000006F000000F3
:103208006B00000067000000630000005F00000022
:103218005B00000057000000530000004F00000052
:103228004B00000047000000430000003F00000082
:103238003B00000037000000330000002F000000B2
:103248002B00000027000000230000001F000000E2
:103258001B00000017000000130000000F00000012
:103268000B000000070000000300000000127A00B5
:08327800010000000400000049
:040000050800198D49
:00000001FF
